S00F00006E65746F6E65322E737265635A
S3150800C0000000022025CB00080DC9000815C9000844
S3150800C0101DC9000825C900082DC900080000000030
S3150800C02000000000000000000000000021380108A0
S3150800C03035C9000800000000713A010841030108EB
S3150800C04075CB000875CB000875CB000875CB0008C2
S3150800C05075CB000875CB000875CB000875CB0008B2
S3150800C06075CB000875CB000875CB000875CB0008A2
S3150800C07075CB000875CB000875CB000875CB000892
S3150800C08075CB000875CB000875CB000875CB000882
S3150800C09075CB000875CB000875CB000875CB000872
S3150800C0A075CB000845C9000875CB000875CB000894
S3150800C0B075CB000875CB000875CB000875CB000852
S3150800C0C075CB000875CB000875CB000875CB000842
S3150800C0D075CB000875CB000875CB000875CB000832
S3150800C0E075CB000875CB000875CB000875CB000822
S3150800C0F075CB000875CB000875CB000875CB000812
S3150800C10075CB000875CB000875CB000875CB000801
S3150800C11075CB000875CB000875CB000875CB0008F1
S3150800C12075CB000875CB000875CB000875CB0008E1
S3150800C13075CB000859C9000875CB000875CB0008EF
S3150800C14075CB000875CB000875CB000875CB0008C1
S3150800C15075CB000875CB000875CB000875CB0008B1
S3150800C16075CB000875CB000875CB000875CB0008A1
S3150800C17075CB000875CB000875CB000800000000D9
S30D0800C18075CB000875CB000819
S3150800C19010B5054C237833B9044B13B10448AFF3F3
S3150800C1A000800123237010BD8C00002000000000D1
S3150800C1B07CF1010808B5034B1BB103490348AFF3EB
S3150800C1C0008008BD00000000900000207CF10108F6
S3150800C1D001F0FF01102A2BDB10F0070F08D010F82A
S3150800C1E0013B013A8B422DD010F0070F42B3F6D12E
S3150800C1F0F0B441EA012141EA014122F007047FF047
S3150800C20000070023F0E80256083C85EA010586EA9D
S3150800C210010685FA47F5A3FA87F586FA47F6A5FAD9
S3150800C22087F68EB9EED1F0BC01F0FF0102F00702E5
S3150800C23032B110F8013B013A83EA010313B1F8D190
S3150800C2400020704701387047002D06BF3546033871
S3150800C250073815F0010F07D1013015F4807F02BFAA
S3150800C260013015F4C03F0130F0BC0138704700BFFB
S3150800C27053B94AB9002908BF00281CBF4FF0FF313F
S3150800C2804FF0FF3000F06AB9ADF1080C6DE904CE45
S3150800C29000F006F8DDF804E0DDE9022304B0704793
S3150800C2A02DE9F047089D0C46002B4ED194468C4547
S3150800C2B08646B2FA82F262D94AB1C2F120039140A7
S3150800C2C020FA03F30CFA02FC194300FA02FE4FEABD
S3150800C2D01C471FFA8CF6B1FBF7F44FEA1E4307FB1F
S3150800C2E0141143EA014304FB06F199420AD91CEBEF
S3150800C2F0030304F1FF3080F01281994240F20F8166
S3150800C300023C6344591A1FFA8EF3B1FBF7F007FB98
S3150800C310101143EA014300FB06F69E420AD91CEBBC
S3150800C320030300F1FF3180F0FC809E4240F2F98061
S3150800C330634402389B1B40EA044000211DB1D340E8
S3150800C3400022C5E90032BDE8F0878B4205D90DB158
S3150800C350C5E9000100210846F5E7B3FA83F100298B
S3150800C36046D1A34202D39042C0F0F080861A64EB0D
S3150800C37003030120002DE6D0C5E90063E3E7002AA0
S3150800C38040F09080A1EB0C044FEA1C481FFA8CF78A
S3150800C3900121B4FBF8F64FEA1E4308FB164443EAAC
S3150800C3A0044307FB06F0984208D91CEB030306F181
S3150800C3B0FF3402D2984200F2CD8026461C1A1FFA94
S3150800C3C08EF3B4FBF8F008FB104443EA044300FB81
S3150800C3D007F79F4208D91CEB030300F1FF3402D28A
S3150800C3E09F4200F2B0802046DB1B40EA0640A5E7E4
S3150800C3F0C1F120068B4022FA06F71F4320FA06FCF5
S3150800C40004FA01F343EA0C03F44000FA01F8380C85
S3150800C4104FEA1349B4FBF0FE1FFA87FC00FB1E44E3
S3150800C42049EA04440EFB0CF9A14502FA01F20AD9BD
S3150800C4303C190EF1FF3A80F08480A14540F28180D4
S3150800C440AEF1020E3C44A4EB09041FFA83F9B4FBCF
S3150800C450F0F300FB134449EA044403FB0CFCA4452F
S3150800C46007D93C1903F1FF3067D2A44565D9023BC9
S3150800C4703C4443EA0E40A0FB0293A4EB0C049C4206
S3150800C480CE469C4651D34ED055B1B8EB0E0364EB5D
S3150800C4900C0404FA06F6CB401E43CC40C5E90064FA
S3150800C4A0002150E7C2F1200320FA03F10CFA02FC3E
S3150800C4B024FA03F394400C434FEA1C4800FA02FEA0
S3150800C4C01FFA8CF7B3FBF8F008FB1031230C43EA8C
S3150800C4D0014300FB07F1994208D91CEB030300F15D
S3150800C4E0FF362CD299422AD9023863445B1AA4B281
S3150800C4F0B3FBF8F108FB113344EA034401FB07F3E5
S3150800C500A34208D91CEB040401F1FF3613D2A34257
S3150800C51011D902396444E41A41EA004139E704466C
S3150800C520F0E6084606E7C845AED2B9EB020E63EB5D
S3150800C530070C0138A8E73146EDE7034699E7304688
S3150800C540D4E7D6467FE7634402384DE706462346D6
S3150800C55008460FE7023E634430E700BF704700BF56
S3150800C56080B400AF034B044A9A6000BFBD465DF82D
S3150800C570047B704700ED00E000C0000880B500AFFE
S3150800C580FFF7EEFF62B600BF00F0FCFB00F016F8FE
S3150800C59000F07EF803F0EEFE054A0021054803F098
S3150800C5A048FF0346044A136003F008FF00BFFDE78F
S3150800C5B0A41C02086DC70008A800002080B594B026
S3150800C5C000AF07F1200330220021184611F0DBFEE8
S3150800C5D007F10C0300221A605A609A60DA601A6141
S3150800C5E00023BB60284B1B6C274A43F08053136417
S3150800C5F0254B1B6C03F08053BB60BB6800237B6034
S3150800C600224B1B68214A43F4804313601F4B1B6867
S3150800C61003F480437B607B6801233B624FF48033DD
S3150800C6207B620223BB634FF48003FB6319233B64DD
S3150800C6304FF4A8737B640223BB640423FB6407F1ED
S3150800C6402003184602F02EF90346002B01D000F00D
S3150800C650B7F80F23FB6002233B6100237B614FF48D
S3150800C660A053BB614FF48053FB6107F10C0305210E
S3150800C670184602F08FFB0346002B01D000F0A0F805
S3150800C68000BF5037BD4680BD0038024000700040EC
S3150800C69080B58AB000AF07F1140300221A605A6009
S3150800C6A09A60DA601A6100233B612E4B1B6B2D4A98
S3150800C6B043F0800313632B4B1B6B03F080033B6132
S3150800C6C03B690023FB60274B1B6B264A43F0040398
S3150800C6D01363244B1B6B03F00403FB60FB68002306
S3150800C6E0BB60204B1B6B1F4A43F0010313631D4BB2
S3150800C6F01B6B03F00103BB60BB6800237B60194B0F
S3150800C7001B6B184A43F010031363164B1B6B03F09D
S3150800C71010037B607B6800233B60124B1B6B114A3E
S3150800C72043F0020313630F4B1B6B03F002033B60DA
S3150800C7303B6800224FF4A0510B4802F07FF84FF4F3
S3150800C740A0537B610123BB610023FB6100233B628D
S3150800C75007F114031946044801F0D4FE00BF283730
S3150800C760BD4680BD003802400010024080B582B048
S3150800C77000AF786002F0A8FF4FF48061064802F027
S3150800C78076F84FF48051044802F071F84FF4967029
S3150800C79003F0E1FE00BFEFE70010024080B582B06B
S3150800C7A000AF78607B681B68044A934201D100F0A9
S3150800C7B00BFB00BF0837BD4680BD00BF0000014027
S3150800C7C080B400AF72B600BF00BFFDE780B582B087
S3150800C7D000AF00237B60124B5B6C114A43F4804325
S3150800C7E053640F4B5B6C03F480437B607B680023C8
S3150800C7F03B600B4B1B6C0A4A43F080531364084B8F
S3150800C8001B6C03F080533B603B6800220F216FF0DE
S3150800C810010000F0D5FB00BF0837BD4680BD00BF4C
S3150800C8200038024080B58CB000AF78600023BB6248
S3150800C83000237B620023BB602F4B5B6C2E4A43F0C0
S3150800C840010353642C4B5B6C03F00103BB60BB68AC
S3150800C85007F10C0207F110031146184602F066FCB0
S3150800C86002F050FC03465B00BB62BB6A234AA2FB8C
S3150800C87003239B0C013B7B62214B224A1A60204B07
S3150800C88040F2E732DA601E4A7B6A53601C4B00228C
S3150800C8901A611B4B00229A60194B00229A611848AC
S3150800C8A002F076FC034687F82F3097F82F30002BD6
S3150800C8B01BD1134802F0C6FC034687F82F3097F8B9
S3150800C8C02F30002B11D1192000F096FB7B680F2B17
S3150800C8D008D800227968192000F072FB0A4A7B689A
S3150800C8E0136002E0012387F82F3097F82F30184697
S3150800C8F03037BD4680BD00BF0038024083DE1B438B
S3150800C900AC000020000001400400002080B400AF05
S3150800C91000BFFDE780B400AF00BFFDE780B400AFFD
S3150800C92000BFFDE780B400AF00BFFDE780B400AFED
S3150800C93000BFFDE780B400AF00BFBD465DF8047BCD
S3150800C9407047000080B500AF024802F0EBFC00BF5C
S3150800C95080BD00BFAC00002080B500AF024800F0E3
S3150800C960E7FE00BF80BD00BF0040002080B400AFD6
S3150800C97001231846BD465DF8047B704780B483B032
S3150800C98000AF78603960054B16221A604FF0FF3306
S3150800C99018460C37BD465DF8047B7047B0C20020C8
S3150800C9A080B582B000AF78604FF0FF317868FFF746
S3150800C9B0E5FF00BFFDE780B586B000AFF860B96057
S3150800C9C07A6000237B610AE0AFF300800146BB680A
S3150800C9D05A1CBA60CAB21A707B6901337B617A69DC
S3150800C9E07B689A42F0DB7B6818461837BD4680BDDF
S3150800C9F080B586B000AFF860B9607A6000237B61C5
S3150800CA0009E0BB685A1CBA601B781846AFF3008069
S3150800CA107B6901337B617A697B689A42F1DB7B68C3
S3150800CA2018461837BD4680BD80B483B000AF78601D
S3150800CA304FF0FF3318460C37BD465DF8047B704748
S3150800CA4080B483B000AF786039603B684FF4005219
S3150800CA505A60002318460C37BD465DF8047B7047BC
S3150800CA6080B483B000AF7860012318460C37BD4602
S3150800CA705DF8047B704780B485B000AFF860B96094
S3150800CA807A60002318461437BD465DF8047B704764
S3150800CA9080B487B000AF7860144A154BD31A7B610F
S3150800CAA07B693B61134B1B68002B02D1114B124A61
S3150800CAB01A60104B1A687B6813443A699A4205D281
S3150800CAC00E4B0C221A604FF0FF3309E0094B1B6826
S3150800CAD0FB60084B1A687B681344064A1360FB68B8
S3150800CAE018461C37BD465DF8047B704700000220D7
S3150800CAF000040000F4000020C0C20020B0C20020DC
S3150800CB0080B400AF064BD3F88830054A43F4700367
S3150800CB10C2F8883000BFBD465DF8047B704700BF89
S3150800CB2000ED00E0DFF834D0FFF7EAFF0C480D49C6
S3150800CB300D4A002302E0D458C4500433C4188C426A
S3150800CB40F9D30A4A0A4C002301E013600432A242D0
S3150800CB50FBD311F0BDFCFFF711FD70470000022062
S3150800CB60000000208C000020FC1E02088C0000201B
S3150800CB70C0C20020FEE780B483B000AF7860396099
S3150800CB807B68002B0BD03B68DB68002B07D03B6823
S3150800CB909B68002B03D03B681B69002B02D14FF022
S3150800CBA0FF3314E03B681A687B689A603B685A68EA
S3150800CBB07B68DA603B68DA687B685A613B689A6822
S3150800CBC07B681A613B681A697B689A610023184674
S3150800CBD00C37BD465DF8047B704780B586B000AF5C
S3150800CBE078600023FB6000237B6100233B617B6840
S3150800CBF05B68002B39D17B689B68002B02D07B6869
S3150800CC009B6898477B6820221A6000237B611CE09A
S3150800CC107B685B6907F10C0212217869984703461D
S3150800CC20002B03DA6FF004033B610BE0FB6803F0AB
S3150800CC301F037A699A4205D17B687A691A600023CC
S3150800CC403B6105E07B6901337B617B691F2BDFD97B
S3150800CC507B681B681F2B02D96FF002033B613B6997
S3150800CC60002B02D17B6801225A603B6918461837A7
S3150800CC70BD4680BD80B584B000AF78600023FB60F8
S3150800CC807B685B697A68106807F10C02012198478E
S3150800CC900346002B02DA6FF004036EE07B685B69DB
S3150800CCA07A68106807F10C02012198470346002BA1
S3150800CCB002DA6FF0040360E0FB6803F00403002B5C
S3150800CCC001D1012359E07B685B697A68106807F12E
S3150800CCD00C02002198470346002B02DA6FF0040382
S3150800CCE04BE0FB6803F48053002B1BD1FB6803F46D
S3150800CCF00053002B06D0FB6803F48073002B01D089
S3150800CD0002233AE0FB6803F40053002B01D0032307
S3150800CD1033E0FB6803F48073002B01D004232CE076
S3150800CD2005232AE07B685B697A68106807F10C02BC
S3150800CD301F2198470346002B02DA6FF004031CE014
S3150800CD40FB6803F48053002B01D1062315E0FB682A
S3150800CD5003F01C03182B01D102230EE0FB6803F035
S3150800CD601C03082B01D1032307E0FB6803F01C030F
S3150800CD70142B01D1042300E0052318461037BD46BD
S3150800CD8080BD000080B500AF0E4B1B680D4A43F40A
S3150800CD90007313600B4B1B680A4A43F480631360E5
S3150800CDA0084B1B68074A43F480731360032000F09E
S3150800CDB0FCF80F20FFF736FDFFF708FD002318469D
S3150800CDC080BD00BF003C024080B400AF064B1B7814
S3150800CDD01A46064B1B681344044A136000BFBD4637
S3150800CDE05DF8047B704700BF08000020F8000020AB
S3150800CDF080B400AF034B1B681846BD465DF8047B3C
S3150800CE00704700BFF800002080B584B000AF786096
S3150800CE10FFF7EEFFB8607B68FB60FB68B3F1FF3F86
S3150800CE2005D00A4B1B781A46FB681344FB6000BF03
S3150800CE30FFF7DEFF0246BB68D31AFA689A42F7D8AC
S3150800CE4000BF00BF1037BD4680BD00BF08000020E8
S3150800CE5080B485B000AF78607B6803F00703FB6099
S3150800CE600C4BDB68BB60BA684FF6FF031340BB6028
S3150800CE70FB681A02BB68134343F0BF6343F40033ED
S3150800CE80BB60044ABB68D36000BF1437BD465DF873
S3150800CE90047B704700ED00E080B400AF044BDB680C
S3150800CEA01B0A03F007031846BD465DF8047B704766
S3150800CEB000ED00E080B483B000AF0346FB7197F93C
S3150800CEC00730002B0BDBFB7903F01F02074997F9A4
S3150800CED007305B09012000FA02F241F8232000BF5F
S3150800CEE00C37BD465DF8047B704700BF00E100E0E3
S3150800CEF080B483B000AF03463960FB7197F90730F9
S3150800CF00002B0ADB3B68DAB20C4997F907301201A5
S3150800CF10D2B20B4483F800230AE03B68DAB2084928
S3150800CF20FB7903F00F03043B1201D2B20B441A76C5
S3150800CF3000BF0C37BD465DF8047B704700E100E092
S3150800CF4000ED00E080B489B000AFF860B9607A609F
S3150800CF50FB6803F00703FB61FB69C3F10703042BB6
S3150800CF6028BF0423BB61FB690433062B02D9FB697E
S3150800CF70033B00E000237B614FF0FF32BB6902FAF6
S3150800CF8003F3DA43BB681A407B699A404FF0FF31D6
S3150800CF907B6901FA03F3D9437B680B4013431846B0
S3150800CFA02437BD465DF8047B704780B582B000AF74
S3150800CFB078607868FFF74CFF00BF0837BD4680BD2C
S3150800CFC080B586B000AF0346B9607A60FB7300236C
S3150800CFD07B61FFF761FF78617A68B9687869FFF75E
S3150800CFE0B1FF024697F90F3011461846FFF780FF42
S3150800CFF000BF1837BD4680BD80B582B000AF034676
S3150800D000FB7197F907301846FFF754FF00BF08373A
S3150800D010BD4680BD80B584B000AF78607B68002BC4
S3150800D02001D101238AE07B68D3F88430002B06D12E
S3150800D0307B682022C3F88420786802F051FF002319
S3150800D040BB60404B5B6C3F4A43F4804353643D4BA3
S3150800D0505B6C03F48043BB60BB683B4B5B683A4A36
S3150800D06023F400035360384B5A687B689B6836493B
S3150800D07013434B60344B5B687B681B6803F580532E
S3150800D0801B687A68126843F0010302F58052136040
S3150800D090FFF7AEFEF86011E0FFF7AAFE0246FB684E
S3150800D0A0D31AB3F5FA7F09D97B680422C3F8882016
S3150800D0B07B68E022C3F8842001233FE07B681B6875
S3150800D0C003F580531B6803F00103002BE4D178684D
S3150800D0D000F05AFF786801F005F8786801F05BF807
S3150800D0E07B685B681A460021786800F0C3FF7B6896
S3150800D0F01B68DA6B7B681B6842F40272DA637B682A
S3150800D1001B68D3F80C317A68126843F4003343F08D
S3150800D1106003C2F80C317B681B68D3F810217B6862
S3150800D1201B6842F40312C3F810217B680022C3F877
S3150800D13088207B681022C3F88420002318461037FD
S3150800D140BD4680BD003802400038014080B584B035
S3150800D15000AF78607B68D3F88430102B61D17B6888
S3150800D1602022C3F884207B6801229A657B68042202
S3150800D170DA66786800F0F4F97B681B681B68FB6060
S3150800D1800120FFF741FE7B681B68FA681A607B6816
S3150800D1901B6803F580539B697A68126843F4005349
S3150800D1A002F5805293617B681B6803F580539B697F
S3150800D1B07A68126843F0020302F580529361786830
S3150800D1C000F07EFD7B681B681A687B681B6842F066
S3150800D1D008021A607B681B681B68FB600120FFF762
S3150800D1E013FE7B681B68FA681A607B681B681A68F6
S3150800D1F07B681B6842F004021A607B681B6803F5AB
S3150800D2008053DB697A68126843F4D03343F0C1036C
S3150800D21002F58052D3617B684022C3F8842000233C
S3150800D22000E0012318461037BD4680BD80B586B09C
S3150800D23000AF78607B68D3F88430402B70D17B6868
S3150800D2402022C3F884207B681B6803F58053DB69BA
S3150800D2507A68126823F4D03323F0C10302F58052AA
S3150800D260D3617B681B6803F580539B697A681268EB
S3150800D27023F4005302F5805293617B681B6803F51B
S3150800D28080539B697A68126823F0020302F580527C
S3150800D29093617B681B681A687B681B6822F0040226
S3150800D2A01A607B681B681B683B610120FFF7ACFDB1
S3150800D2B07B681B683A691A60786800F001FD7B682C
S3150800D2C01B681A687B681B6822F008021A607B686C
S3150800D2D01B681B683B610120FFF796FD7B681B688E
S3150800D2E03A691A6000237B610EE07B687A6912321C
S3150800D2F053F82230FB60FB685B6843F00042FB682A
S3150800D3005A607B6901337B617B69032BEDD97B68A6
S3150800D31000229A657B681022C3F88420002300E067
S3150800D320012318461837BD4680BD80B582B000AFC8
S3150800D330786039603B68002B09D17B68D3F8883060
S3150800D34043F001027B68C3F88820012345E07B6827
S3150800D350D3F88430402B3FD13B685A6B7B68DA633D
S3150800D36001223968786800F085FF0346002B09D04A
S3150800D3707B68D3F8883043F002027B68C3F88820BC
S3150800D38001232AE0BFF34F8F00BF7B689B6A5A1CB4
S3150800D3907B689A627B689B6A032B04D97B689B6AC5
S3150800D3A01A1F7B689A627B681B6803F580535B6962
S3150800D3B003F00403002B0DD07B681B6803F580532C
S3150800D3C01A46042353617B681B6803F580531A4683
S3150800D3D000235360002300E0012318460837BD46A2
S3150800D3E080BD80B588B000AF7860396000237B6166
S3150800D3F00023FB743B68002B09D17B68D3F888307F
S3150800D40043F001027B68C3F888200123A4E07B6807
S3150800D410D3F88430402B01D001239DE07B68DB6D77
S3150800D420FB617B68FA69123253F82230BB617B686C
S3150800D430DB6EC3F10403FB6066E0BB691B6803F49B
S3150800D4408073002B07D0BB69DA697B689A67BB696A
S3150800D4509A697B685A67BB691B6803F40073002BDB
S3150800D46003D17B68DB6F002B3CD0BB691B6803F4D8
S3150800D4700073002B05D07B6800221A667B680022A1
S3150800D4805A66BB691B681B0CC3F30D03BB60BB69FB
S3150800D4901B6803F48073002B05D0BB691A687B6888
S3150800D4A01A670123FB74BB699A68BB691A627B68B1
S3150800D4B003F17C007B6803F18001BB691B6A1A468D
S3150800D4C0BB689BB202F0C6FE7B681B6E5A1C7B6863
S3150800D4D01A667B685A6EBB681A447B685A66BB69CB
S3150800D4E000221A62FB690133FB61FB69032B02D92F
S3150800D4F0FB69043BFB617B68FA69123253F82230F8
S3150800D500BB617B6901337B61BB691B68002B06DB4A
S3150800D5107A69FB689A4202D2FB7C002B8DD07B6825
S3150800D520DA6E7B691A447B68DA667B68DB6E002BE9
S3150800D53002D0786800F014F87B68FA69DA65FB7C33
S3150800D540012B08D17B68DA6F3B681A607B6800227A
S3150800D550DA67002300E0012318462037BD4680BD60
S3150800D56080B588B000AF78600023BB600123FB74E8
S3150800D5707B689B6EFB617B68FA69123253F822302E
S3150800D5807B617B68DB6EBB6144E07B691B6A002BB1
S3150800D59012D107F10803184602F02CFEBB68002BCF
S3150800D5A002D10023FB7407E0BB681A467B691A623E
S3150800D5B0BB681A467B699A60FB7C002B2AD07B687D
S3150800D5C09B6D002B08D17B685B6943F0004343F4ED
S3150800D5D080437A69536005E07B685B6943F480425F
S3150800D5E07B695A607B691B6843F000427B691A6055
S3150800D5F0FB690133FB61FB69032B02D9FB69043B19
S3150800D600FB617B68FA69123253F822307B61BB6989
S3150800D610013BBB61BB69002B02D0FB7C002BB4D15C
S3150800D6207B68DB6EBA699A421AD0FB69033303F04A
S3150800D6300303FB60BFF35F8F00BF7B681969FA6855
S3150800D64013469B001344DB00CA187B681B6803F566
S3150800D65080539A607B68FA699A667B68BA69DA6663
S3150800D66000BF2037BD4680BD80B586B000AF786064
S3150800D6707B681833BB60BB689B6A7B61BB68DB6AE7
S3150800D6803B610123FB7347E00123BB737B69013BC5
S3150800D6907B61BA683B6904339B0013445B68002BC3
S3150800D6A00AD13B6901333B613B69032B02D93B69CC
S3150800D6B0043B3B610023BB73BB7B002B2CD07B68F0
S3150800D6C0D9683A6913469B001344DB000B441B6870
S3150800D6D0002B1FDBBA683B6904339B0013445B6865
S3150800D6E0184602F0F7FDBA683B6904339B001344F9
S3150800D6F000225A603B6901333B613B69032B02D91F
S3150800D7003B69043B3B61BB687A699A62BB683A69C4
S3150800D710DA6201E00023FB737B69002B02D0FB7BF6
S3150800D720002BB1D1002318461837BD4680BD00002E
S3150800D73080B586B000AF78607B681B689B6B7B61A1
S3150800D7407B681B6803F580535B693B617B681B68D4
S3150800D75003F58053DB69FB604B4B5B69BB603B6938
S3150800D76003F04003002B0ED0FB6803F04003002BA8
S3150800D77009D07B681B6803F580531A46434B5361EF
S3150800D780786802F0EDF83B6903F00103002B0FD02F
S3150800D790FB6803F00103002B0AD07B681B6803F5BE
S3150800D7A080531A464FF001135361786802F0E8F87F
S3150800D7B03B6903F40043002B42D0FB6803F40043A3
S3150800D7C0002B3DD07B68D3F8883043F008027B688D
S3150800D7D0C3F888203B6903F40053002B1AD07B68F2
S3150800D7E01B6803F580535A69294B13407A68C2F8B7
S3150800D7F08C307B681B6803F58053DB697A6812688E
S3150800D80023F4C03302F58052D3617B68E022C3F863
S3150800D810842012E07B681B6803F580535A6948F236
S3150800D820806313407A68C2F88C307B681B6803F5FE
S3150800D83080531A4648F280635361786802F0B0F85C
S3150800D8407B6903F00803002B0ED07B681B68DB6A34
S3150800D85003F060027B68C3F89420786800F01AF831
S3150800D8607B680022C3F89420BB6803F40023002BCE
S3150800D87006D0054B4FF400225A61786800F014F878
S3150800D88000BF1837BD4680BD003C0140400001007E
S3150800D89000207E0080B483B000AF786000BF0C37EC
S3150800D8A0BD465DF8047B704780B483B000AF7860EE
S3150800D8B000BF0C37BD465DF8047B704780B586B05F
S3150800D8C000AFF860B9607A603B60FB681B681B694B
S3150800D8D07B617B6903F01C037B61BB68DB029BB23F
S3150800D8E07A6913437B617B689B0103F4F8637A6961
S3150800D8F013437B617B6923F002037B617B6943F0F9
S3150800D90001037B61FB681B687A691A61FFF770FA85
S3150800D91038610DE0FFF76CFA02463B69D31AB3F596
S3150800D920803F01D3012310E0FB681B681B697B61FC
S3150800D9307B6903F00103002BECD1FB681B685B696C
S3150800D9409BB21A463B681A60002318461837BD462C
S3150800D95080BD80B586B000AFF860B9607A603B607C
S3150800D960FB681B681B697B617B6903F01C037B6191
S3150800D970BB68DB029BB27A6913437B617B689B01B8
S3150800D98003F4F8637A6913437B617B6943F0020306
S3150800D9907B617B6943F001037B613B689AB2FB6854
S3150800D9A01B685A61FB681B687A691A61FFF720FAD7
S3150800D9B038610DE0FFF71CFA02463B69D31AB3F546
S3150800D9C0803F01D3012309E0FB681B681B697B6163
S3150800D9D07B6903F00103002BECD1002318461837A6
S3150800D9E0BD4680BD80B483B000AF786039603B68BF
S3150800D9F0002B01D10123E6E07B681B681B6803F056
S3150800DA001003002B14BF01230023DBB21A463B6820
S3150800DA1083F828207B681B681B6803F060023B6854
S3150800DA205A627B681B681B6803F40073002B0CBFE3
S3150800DA3001230023DBB21A463B6883F820207B6863
S3150800DA401B681B6803F48033002B14BF01230023D3
S3150800DA50DBB21A463B68DA777B681B681B6803F4F7
S3150800DA600053002B0CBF01230023DBB21A463B6888
S3150800DA709A777B681B681B6803F48053002B14BFD6
S3150800DA8001230023DBB21A463B681A777B681B68BA
S3150800DA901B6803F400623B689A617B681B681B6815
S3150800DAA003F480423B685A617B681B681B6803F471
S3150800DAB08003002B0CBF01230023DBB21A463B6808
S3150800DAC05A747B681B681B6803F40003002B0CBFA1
S3150800DAD001230023DBB21A463B681A747B681B686D
S3150800DAE01B6803F08003002B14BF01230023DBB25D
S3150800DAF01A463B68DA737B681B681B6803F4602266
S3150800DB003B689A607B681B681B6803F48063002B7C
S3150800DB1014BF01230023DBB21A463B681A717B68DF
S3150800DB201B681B6803F00073002B14BF0123002336
S3150800DB30DBB21A463B689A737B681B689B6903F0DD
S3150800DB400203002B14BF01230023DBB21A463B68ED
S3150800DB5083F854207B681B689B6903F08003002BBD
S3150800DB600CBF01230023DBB21A463B6883F84C201E
S3150800DB707B681B689B6903F030023B681A657B6803
S3150800DB801B689B691B0C9AB23B689A647B681B6886
S3150800DB909B6903F00403002B14BF01230023DBB2A7
S3150800DBA01A463B6883F856207B681B689B6903F016
S3150800DBB00803002B14BF01230023DBB21A463B6877
S3150800DBC083F85520002318460C37BD465DF8047BBC
S3150800DBD0704780B582B000AF786039603B68002B2B
S3150800DBE001D101230BE07B68D3F88430102B05D1D3
S3150800DBF03968786800F08AF8002300E0012318469F
S3150800DC000837BD4680BD000080B584B000AF786097
S3150800DC107B681B681B69FB60FB6823F01C03FB60C1
S3150800DC2001F064FAB860BB68144A934204D8FB68EA
S3150800DC3043F00803FB6019E0BB68114A934204D21B
S3150800DC40FB6843F00C03FB6010E0BB680D4A934287
S3150800DC500CD9BB680C4A934204D8FB6843F004030A
S3150800DC60FB6003E0FB6843F01003FB607B681B68FE
S3150800DC70FA681A6100BF1037BD4680BDBF0E16028E
S3150800DC8000879303FFE0F5057FD1F00880B483B0E1
S3150800DC9000AF78607B68D3F8883018460C37BD46E5
S3150800DCA05DF8047B704780B483B000AF78607B680A
S3150800DCB0D3F88C3018460C37BD465DF8047B7047A0
S3150800DCC080B584B000AF78600023FB607B681B6872
S3150800DCD003F580539B697A68126843F4801302F54A
S3150800DCE0805293617B681B6803F580539B69FB60D0
S3150800DCF00120FFF789F87B681A68FB6802F58052ED
S3150800DD00936100BF1037BD4680BD000080B584B062
S3150800DD1000AF786039607B681B681B68FB60FA682F
S3150800DD20534B1340FB603B689B7B5B063A68127C4F
S3150800DD30002A02D14FF4000200E0002213433A6899
S3150800DD40527C002A02D14FF4800200E000221A43D6
S3150800DD503B689B681A433B68DB7F1B041A433B6896
S3150800DD605B6913433A68927F002A02D14FF4005246
S3150800DD7000E000221A433B681B7F1B031A433B68DB
S3150800DD809B691A433B681B799B0213433A6892F8CE
S3150800DD902020002A02D14FF4007200E000221A4324
S3150800DDA03B68DB7BDB011A433B685B6A1A433B68CB
S3150800DDB093F828301B011343FA681343FB607B680A
S3150800DDC01B68FA681A607B681B681B68FB60012081
S3150800DDD0FFF71AF87B681B68FA681A607B681B6885
S3150800DDE09B69FB60FA684FF641731340FB603B681A
S3150800DDF09B6C1B043A6892F84C20002A01D18022B9
S3150800DE0000E000221A433B681B6D13433A6892F8F8
S3150800DE105520012A01D1082200E0002213433A685E
S3150800DE2092F85620012A01D1042200E00022134369
S3150800DE303A6892F85420012A01D1022200E0002211
S3150800DE401343FA681343FB607B681B68FA689A6198
S3150800DE507B681B689B69FB600120FEF7D5FF7B6822
S3150800DE601B68FA689A6100BF1037BD4680BD00BFBF
S3150800DE700F8120FD80B584B000AF786039607B687B
S3150800DE801B6803F580539B69FB60FA683D4B13409A
S3150800DE90FB603B681B7B002B02D14FF0806200E0E1
S3150800DEA000223B685B7B5B0613433A68527F002A75
S3150800DEB002D14FF4801200E000221A433B689B7B94
S3150800DEC05B051A433B685B691A433B681B7FDB01AA
S3150800DED01A433B689B7F9B011A433B681B6A1A439C
S3150800DEE03B6893F824309B001343FA681343FB609E
S3150800DEF07B681B6803F580531A46FB6893617B6849
S3150800DF001B6803F580539B69FB600120FEF77CFFC5
S3150800DF107B681B6803F580531A46FB6893613B6868
S3150800DF201B795A063B689B681A433B689B691A43E8
S3150800DF303B681B691A433B6893F82530DB011A4393
S3150800DF403B689B6A9B001A433B681B6813437A68C5
S3150800DF50126843F4000302F5805213607B681B685D
S3150800DF6003F580531B68FB600120FEF74DFF7B68B5
S3150800DF701B6803F580531A46FB68136000BF103709
S3150800DF80BD4680BD233FDEF880B5A6B000AF7860F9
S3150800DF90012387F84430012387F845300023FB63C3
S3150800DFA0002387F85330012387F85230002387F877
S3150800DFB05030012387F84230012387F83830002390
S3150800DFC087F85430002387F843300023BB650023C5
S3150800DFD087F85C300023FB67002387F8803000232E
S3150800DFE0C7F88430002387F88A30002387F88830FA
S3150800DFF04FF48043BB644FF40063FB64002387F847
S3150800E000893007F1340319467868FFF77FFE012344
S3150800E0103B7501237B75012387F825300123BB75E2
S3150800E0200023FB61002387F82430002387F8263075
S3150800E0300023BB62012387F82C3001233B734FF47E
S3150800E04080333B614FF480033B624FF40053BB615E
S3150800E050012387F82D3000233B630023BB6007F1BB
S3150800E060080319467868FFF705FF00BF9837BD46CD
S3150800E07080BD000080B487B000AFF860B9607A60F0
S3150800E0807B6805331B781B027A68043212781343BF
S3150800E0907B61BA68114B13441A467B6913607B6827
S3150800E0A003331B781A067B6802331B781B041A4352
S3150800E0B07B6801331B781B0213437A681278134373
S3150800E0C07B61BA68064B13441A467B69136000BF26
S3150800E0D01C37BD465DF8047B704700BF4080024090
S3150800E0E04480024080B485B000AF78600023FB60AE
S3150800E0F03EE07B68D968FA6813469B001344DB0048
S3150800E1000B44BB60BB6800221A60BB6800225A60D9
S3150800E110BB6800229A60BB680022DA60B9687B682F
S3150800E120FA68063243F82210BB681B6843F480126B
S3150800E130BB681A60FB68022B0CD87B68D968FB6839
S3150800E1405A1C13469B001344DB000B441A46BB6853
S3150800E150DA6004E07B68DB681A46BB68DA60BB688D
S3150800E1601B6843F44002BB681A60FB680133FB6016
S3150800E170FB68032BBDD97B6800229A627B68DA6844
S3150800E1807B681B6803F580531A6100BF1437BD46C8
S3150800E1905DF8047B704780B485B000AF78600023D3
S3150800E1A0FB6048E07B681969FA6813469B001344CC
S3150800E1B0DB000B44BB60BB6800221A60BB68002208
S3150800E1C05A60BB6800229A60BB680022DA60BB68A6
S3150800E1D000221A62BB6800225A62BB684FF00042EE
S3150800E1E01A607B685B6943F48042BB685A60BB6807
S3150800E1F05B6823F00042BB685A60B9687B68FA68B6
S3150800E200123243F82210FB68022B0CD87B68196976
S3150800E210FB685A1C13469B001344DB000B441A4642
S3150800E220BB68DA6004E07B681B691A46BB68DA607B
S3150800E230FB680133FB60FB68032BB3D97B680022BC
S3150800E240DA657B6800221A667B6800229A667B6814
S3150800E2500022DA667B6800229A657B681A697B6801
S3150800E2601B6803F58053DA6000BF1437BD465DF8B6
S3150800E270047B704780B491B000AFF860B9607A60EB
S3150800E280FB6818337B627B6A1B69FB637B6A1B69C5
S3150800E2903B6200237B637B6AFA6B53F822303B634D
S3150800E2A0BB689B68FB620023BB623B6B1B6803F081
S3150800E2B00043B3F1004F07D07A6AFB6B04339B0027
S3150800E2C013445B68002B01D0022315E17B6B0133F5
S3150800E2D07B63FB6A1B681A463B6B9A603B6B5B6801
S3150800E2E023F4FF5323F01F03FA6A52681A433B6B61
S3150800E2F05A60BB681B6803F00103002B08D03B6B10
S3150800E3001B6823F44002BB685B691A433B6B1A60BF
S3150800E310BB681B6803F02003002B08D03B6B1B6807
S3150800E32023F04062BB681B691A433B6B1A60BB68E3
S3150800E3301B6803F00403002B05D03B6B1B6843F0F6
S3150800E34080023B6B1A603B6B1B6843F080523B6B49
S3150800E3501A6084E03B6B1B6823F000523B6B1A6023
S3150800E3607B68002B06D03B6B1B6843F080423B6BF7
S3150800E3701A6005E03B6B1B6823F080423B6B1A6012
S3150800E380FB6B0133FB63FB6B032B02D9FB6B043B73
S3150800E390FB637B6AFA6B53F822303B633B6B1B6863
S3150800E3A003F00043B3F1004F07D07A6AFB6B0433DE
S3150800E3B09B0013445B68002B29D03B6AFB637B6A8E
S3150800E3C0FA6B53F822303B630023BB6319E0BFF3B3
S3150800E3D05F8F00BF3B6B1B6823F000423B6B1A60E4
S3150800E3E0FB6B0133FB63FB6B032B02D9FB6B043B13
S3150800E3F0FB637B6AFA6B53F822303B63BB6B0133D2
S3150800E400BB63BA6B7B6B9A42E1D3022374E03B6B26
S3150800E4101B6823F080523B6B1A607B6B01337B636E
S3150800E420FB6A9B68FB62FB6A1B681A463B6B9A6031
S3150800E4303B6B5B6823F4FF5323F01F03FA6A5268A9
S3150800E4401A433B6B5A60BB6A0133BB62BFF35F8FEB
S3150800E45000BF3B6B1B6843F000423B6B1A60FB6ACC
S3150800E4609B68002B7FF476AF7B68002B06D03B6B4E
S3150800E4701B6843F080423B6B1A6005E03B6B1B68E8
S3150800E48023F080423B6B1A603B6B1B6843F00052DB
S3150800E4903B6B1A607B6A3A6A53F822303B63BFF3D8
S3150800E4A05F8F00BF3B6B1B6843F000423B6B1A60F3
S3150800E4B07B6A5A6A796AFB6B04339B000B445A6081
S3150800E4C07B6AFA6B1A61EFF310833B613B69FB6168
S3150800E4D001237B617B6983F3108800BF7B6A9A6A94
S3150800E4E0BB6A13445A1C7B6A9A62FB69BB61BB69A7
S3150800E4F083F3108800BF002318464437BD465DF8ED
S3150800E500047B704780B489B000AF78603960002317
S3150800E5107B6100233B610023BB610023FB616BE148
S3150800E5200122FB6902FA03F37B613B681B687A697F
S3150800E53013403B613A697B699A4240F05A813B68CD
S3150800E5405B6803F00303012B05D03B685B6803F0A7
S3150800E5500303022B30D17B689B68BB61FB695B00B8
S3150800E560032202FA03F3DB43BA691340BB613B6833
S3150800E570DA68FB695B0002FA03F3BA691343BB6105
S3150800E5807B68BA699A607B685B68BB610122FB6934
S3150800E59002FA03F3DB43BA691340BB613B685B6865
S3150800E5A01B0903F00102FB6902FA03F3BA69134374
S3150800E5B0BB617B68BA695A603B685B6803F0030312
S3150800E5C0032B17D07B68DB68BB61FB695B00032202
S3150800E5D002FA03F3DB43BA691340BB613B689A68E6
S3150800E5E0FB695B0002FA03F3BA691343BB617B68F4
S3150800E5F0BA69DA603B685B6803F00303022B23D130
S3150800E600FB69DA087B68083253F82230BB61FB697C
S3150800E61003F007039B000F2202FA03F3DB43BA69F0
S3150800E6201340BB613B681A69FB6903F007039B004B
S3150800E63002FA03F3BA691343BB61FB69DA087B681C
S3150800E6400832B96943F822107B681B68BB61FB690D
S3150800E6505B00032202FA03F3DB43BA691340BB618A
S3150800E6603B685B6803F00302FB695B0002FA03F38D
S3150800E670BA691343BB617B68BA691A603B685B6811
S3150800E68003F44033002B00F0B4800023FB60604B9A
S3150800E6905B6C5F4A43F4804353645D4B5B6C03F4E5
S3150800E6A08043FB60FB685B4AFB699B08023352F8B0
S3150800E6B02330BB61FB6903F003039B000F2202FAB8
S3150800E6C003F3DB43BA691340BB617B68524A934242
S3150800E6D02BD07B68514A934225D07B68504A934297
S3150800E6E01FD07B684F4A934219D07B684E4A9342A3
S3150800E6F013D07B684D4A93420DD07B684C4A9342AF
S3150800E70007D07B684B4A934201D107230EE00823C2
S3150800E7100CE006230AE0052308E0042306E00323A9
S3150800E72004E0022302E0012300E00023FA6902F074
S3150800E730030292009340BA691343BB613549FB69EA
S3150800E7409B080233BA6941F823203B4B9B68BB619F
S3150800E7503B69DB43BA691340BB613B685B6803F4FA
S3150800E7608013002B03D0BA693B691343BB61324A55
S3150800E770BB699360304BDB68BB613B69DB43BA69B5
S3150800E7801340BB613B685B6803F40013002B03D09E
S3150800E790BA693B691343BB61274ABB69D360264BF9
S3150800E7A05B68BB613B69DB43BA691340BB613B6885
S3150800E7B05B6803F40033002B03D0BA693B69134343
S3150800E7C0BB611D4ABB6953601B4B1B68BB613B6938
S3150800E7D0DB43BA691340BB613B685B6803F480336B
S3150800E7E0002B03D0BA693B691343BB61124ABB6964
S3150800E7F01360FB690133FB61FB690F2B7FF690AE53
S3150800E80000BF00BF2437BD465DF8047B704700BFD4
S3150800E810003802400038014000000240000402406F
S3150800E82000080240000C024000100240001402409A
S3150800E83000180240001C0240003C014080B483B02E
S3150800E84000AF78600B467B8013467B707B78002B85
S3150800E85003D07A887B689A6103E07B881A047B6810
S3150800E8609A6100BF0C37BD465DF8047B704780B4DB
S3150800E87085B000AF78600B467B807B685B69FB6080
S3150800E8807A88FB6813401A04FB68D9437B880B40D7
S3150800E8901A437B689A6100BF1437BD465DF8047B4E
S3150800E8A07047000080B586B000AF78607B68002BA3
S3150800E8B001D1012367E27B681B6803F00103002B83
S3150800E8C075D0884B9B6803F00C03042B0CD0854B42
S3150800E8D09B6803F00C03082B12D1824B5B6803F488
S3150800E8E08003B3F5800F0BD17E4B1B6803F400330E
S3150800E8F0002B5BD07B685B68002B57D1012342E273
S3150800E9007B685B68B3F5803F06D1764B1B68754A12
S3150800E91043F4803313601DE07B685B68B3F5A02F72
S3150800E9200CD1704B1B686F4A43F4802313606D4B00
S3150800E9301B686C4A43F4803313600BE0694B1B6811
S3150800E940684A23F480331360664B1B68654A23F4D0
S3150800E950802313607B685B68002B13D0FEF748FAA8
S3150800E960386108E0FEF744FA02463B69D31A642B7D
S3150800E97001D9032307E25B4B1B6803F40033002B22
S3150800E980F0D014E0FEF734FA386108E0FEF730FA02
S3150800E99002463B69D31A642B01D90323F3E1514B91
S3150800E9A01B6803F40033002BF0D100E000BF7B683E
S3150800E9B01B6803F00203002B63D04A4B9B6803F0E5
S3150800E9C00C03002B0BD0474B9B6803F00C03082B5A
S3150800E9D01CD1444B5B6803F48003002B16D1414BD2
S3150800E9E01B6803F00203002B05D07B68DB68012B4C
S3150800E9F001D00123C7E13B4B1B6823F0F8027B6873
S3150800EA001B69DB00374913430B603AE07B68DB6818
S3150800EA10002B20D0344B01221A60FEF7E9F9386141
S3150800EA2008E0FEF7E5F902463B69D31A022B01D93D
S3150800EA300323A8E12B4B1B6803F00203002BF0D03D
S3150800EA40284B1B6823F0F8027B681B69DB00254905
S3150800EA5013430B6015E0244B00221A60FEF7C8F931
S3150800EA60386108E0FEF7C4F902463B69D31A022B5F
S3150800EA7001D9032387E11B4B1B6803F00203002B14
S3150800EA80F0D17B681B6803F00803002B36D07B683F
S3150800EA905B69002B16D0154B01221A60FEF7A8F900
S3150800EAA0386108E0FEF7A4F902463B69D31A022B3F
S3150800EAB001D9032367E10B4B5B6F03F00203002BBD
S3150800EAC0F0D01BE0094B00221A60FEF791F9386175
S3150800EAD00EE0FEF78DF902463B69D31A022B07D9D9
S3150800EAE0032350E10038024000004742800E4742A7
S3150800EAF0884B5B6F03F00203002BEAD17B681B6827
S3150800EB0003F00403002B00F097800023FB75814B6C
S3150800EB101B6C03F08053002B0FD10023BB607D4B89
S3150800EB201B6C7C4A43F0805313647A4B1B6C03F0CE
S3150800EB308053BB60BB680123FB75774B1B6803F4E6
S3150800EB408073002B18D1744B1B68734A43F4807387
S3150800EB501360FEF74DF9386108E0FEF749F90246F9
S3150800EB603B69D31A022B01D903230CE16A4B1B68B4
S3150800EB7003F48073002BF0D07B689B68012B06D1C9
S3150800EB80644B1B6F634A43F0010313671CE07B6801
S3150800EB909B68052B0CD15F4B1B6F5E4A43F0040341
S3150800EBA013675C4B1B6F5B4A43F0010313670BE06B
S3150800EBB0584B1B6F574A23F001031367554B1B6FBE
S3150800EBC0544A23F0040313677B689B68002B15D00F
S3150800EBD0FEF70EF938610AE0FEF70AF902463B69C4
S3150800EBE0D31A41F28832934201D90323CBE0494B29
S3150800EBF01B6F03F00203002BEED014E0FEF7F8F8C3
S3150800EC0038610AE0FEF7F4F802463B69D31A41F286
S3150800EC108832934201D90323B5E03E4B1B6F03F0BC
S3150800EC200203002BEED1FB7D012B05D1394B1B6C62
S3150800EC30384A23F0805313647B689B69002B00F0E5
S3150800EC40A180344B9B6803F00C03082B5CD07B68CF
S3150800EC509B69022B41D1314B00221A60FEF7C8F896
S3150800EC60386108E0FEF7C4F802463B69D31A022B5E
S3150800EC7001D9032387E0274B1B6803F00073002B99
S3150800EC80F0D17B68DA697B681B6A1A437B685B6A22
S3150800EC909B011A437B689B6A5B08013B1B041A436A
S3150800ECA07B68DB6A1B061B4913434B601B4B01221F
S3150800ECB01A60FEF79DF8386108E0FEF799F80246F3
S3150800ECC03B69D31A022B01D903235CE0114B1B685D
S3150800ECD003F00073002BF0D054E0104B00221A60AA
S3150800ECE0FEF786F8386108E0FEF782F802463B69C7
S3150800ECF0D31A022B01D9032345E0064B1B6803F000
S3150800ED000073002BF0D13DE07B689B69012B07D18E
S3150800ED10012338E000380240007000406000474296
S3150800ED201B4B5B68FB607B689B69012B28D0FB68E3
S3150800ED3003F480027B68DB699A4221D1FB6803F001
S3150800ED403F027B681B6A9A421AD1FA6847F6C07373
S3150800ED5013407A68526A9201934211D1FB6803F410
S3150800ED6040327B689B6A5B08013B1B049A4207D1C9
S3150800ED70FB6803F070627B68DB6A1B069A4201D067
S3150800ED80012300E0002318461837BD4680BD00BFA2
S3150800ED900038024080B584B000AF786039607B687F
S3150800EDA0002B01D10123CCE0684B1B6803F0070355
S3150800EDB03A689A420CD9654B3A68D2B21A70634BD4
S3150800EDC01B6803F007033A689A4201D00123B8E0AA
S3150800EDD07B681B6803F00203002B20D07B681B6846
S3150800EDE003F00403002B05D0594B9B68584A43F49B
S3150800EDF0E05393607B681B6803F00803002B05D07B
S3150800EE00534B9B68524A43F460439360504B9B684C
S3150800EE1023F0F0027B689B684D4913438B607B683F
S3150800EE201B6803F00103002B44D07B685B68012B49
S3150800EE3007D1474B1B6803F40033002B19D1012374
S3150800EE407FE07B685B68022B03D07B685B68032BDB
S3150800EE5007D13F4B1B6803F00073002B09D1012330
S3150800EE606FE03B4B1B6803F00203002B01D1012323
S3150800EE7067E0374B9B6823F003027B685B6834497D
S3150800EE8013438B60FDF7B4FFF8600AE0FDF7B0FFA7
S3150800EE900246FB68D31A41F28832934201D903230A
S3150800EEA04FE02B4B9B6803F00C027B685B689B006A
S3150800EEB09A42EBD1254B1B6803F007033A689A423E
S3150800EEC00CD2224B3A68D2B21A70204B1B6803F058
S3150800EED007033A689A4201D0012332E07B681B682F
S3150800EEE003F00403002B08D0194B9B6823F4E05267
S3150800EEF07B68DB68164913438B607B681B6803F0E5
S3150800EF000803002B09D0124B9B6823F460427B68E8
S3150800EF101B69DB000E4913438B6000F021F802469B
S3150800EF200B4B9B681B0903F00F030A49CB5C22FABB
S3150800EF3003F3094A1360094B1B681846FDF772FC70
S3150800EF40002318461037BD4680BD00BF003C02406E
S3150800EF5000380240C81C02080000002004000020F7
S3150800EF602DE9B04F90B000AF00237B630023FB630D
S3150800EF7000233B630023BB63594B9B6803F00C03D8
S3150800EF80082B0DD0082B00F2A180002B02D0042BF1
S3150800EF9003D09BE0534BBB639BE0534BBB6398E0AA
S3150800EFA04F4B5B6803F03F037B634D4B5B6803F491
S3150800EFB08003002B28D04A4B5B689B0900223B62E2
S3150800EFC07A623B6AC3F308000021474B03FB01F250
S3150800EFD0002300FB03F31344434AA0FB0212FA6220
S3150800EFE00A46BA62FA6A1344FB627B6B0022BB616B
S3150800EFF0FA61D7E90623D7E90A01FDF739F9024686
S3150800F0000B461346FB6353E0354B5B689B090022AE
S3150800F0103B617A613B69C3F3080A4FF0000B52461D
S3150800F0205B464FF000004FF00001590141EAD261FA
S3150800F030500102460B46B2EB0A0863EB0B094FF088
S3150800F04000024FF000034FEA891343EA98634FEA38
S3150800F0508812B2EB080463EB09054FF000024FF083
S3150800F0600003EB0043EA5473E20014461D4614EB12
S3150800F0700A033B6045EB0B037B604FF000024FF041
S3150800F0800003D7E9004529468B02214643EA9153F6
S3150800F09021468A02104619467B6B0022BB60FA603D
S3150800F0A0D7E90223FDF7E4F802460B461346FB634D
S3150800F0B00B4B5B681B0C03F0030301335B003B63DC
S3150800F0C0FA6B3B6BB2FBF3F3BB6302E0054BBB6326
S3150800F0D000BFBB6B18464037BD46BDE8B08F00BFC2
S3150800F0E0003802400024F40040787D0180B400AF67
S3150800F0F0034B1B681846BD465DF8047B704700BF86
S3150800F1000000002080B500AFFFF7F0FF0246054B70
S3150800F1109B685B0B03F007030349CB5C22FA03F3F6
S3150800F120184680BD00380240D81C020880B483B057
S3150800F13000AF786039607B680F221A60124B9B68B3
S3150800F14003F003027B685A600F4B9B6803F0F002DA
S3150800F1507B689A600C4B9B6803F4E0527B68DA6024
S3150800F160094B9B68DB0803F4E0527B681A61074B7E
S3150800F1701B6803F007023B681A6000BF0C37BD46E0
S3150800F1805DF8047B704700BF00380240003C02402F
S3150800F19080B582B000AF78607B68002B01D101236F
S3150800F1A041E07B6893F83D30DBB2002B06D17B68E3
S3150800F1B0002283F83C20786800F039F87B68022240
S3150800F1C083F83D207B681A687B6804331946104625
S3150800F1D000F0C0F97B68012283F846207B6801228B
S3150800F1E083F83E207B68012283F83F207B68012252
S3150800F1F083F840207B68012283F841207B6801223E
S3150800F20083F842207B68012283F843207B68012229
S3150800F21083F844207B68012283F845207B68012215
S3150800F22083F83D20002318460837BD4680BD80B4C4
S3150800F23083B000AF786000BF0C37BD465DF8047B2D
S3150800F2407047000080B485B000AF78607B6893F89B
S3150800F2503D30DBB2012B01D001234EE07B68022250
S3150800F26083F83D207B681B68DA687B681B6842F078
S3150800F2700102DA607B681B68234A934222D07B68C6
S3150800F2801B68B3F1804F1DD07B681B681F4A9342E9
S3150800F29018D07B681B681E4A934213D07B681B688C
S3150800F2A01C4A93420ED07B681B681B4A934209D0BE
S3150800F2B07B681B68194A934204D07B681B68184A06
S3150800F2C0934211D17B681B689B6803F00703FB60B8
S3150800F2D0FB68062B10D07B681B681A687B681B685E
S3150800F2E042F001021A6007E07B681B681A687B68AF
S3150800F2F01B6842F001021A60002318461437BD46FF
S3150800F3005DF8047B704700BF000001400004004020
S3150800F31000080040000C0040000401400040014085
S3150800F3200018004080B584B000AF78607B681B6821
S3150800F330DB68FB607B681B681B69BB60BB6803F006
S3150800F3400203002B20D0FB6803F00203002B1BD01E
S3150800F3507B681B686FF002021A617B6801221A77C4
S3150800F3607B681B689B6903F00303002B03D078684E
S3150800F37000F0D2F805E0786800F0C4F8786800F084
S3150800F380D5F87B6800221A77BB6803F00403002BC4
S3150800F39020D0FB6803F00403002B1BD07B681B6896
S3150800F3A06FF004021A617B6802221A777B681B6871
S3150800F3B09B6903F44073002B03D0786800F0ACF81F
S3150800F3C005E0786800F09EF8786800F0AFF87B688A
S3150800F3D000221A77BB6803F00803002B20D0FB68CD
S3150800F3E003F00803002B1BD07B681B686FF008022C
S3150800F3F01A617B6804221A777B681B68DB6903F04D
S3150800F4000303002B03D0786800F086F805E07868D7
S3150800F41000F078F8786800F089F87B6800221A7797
S3150800F420BB6803F01003002B20D0FB6803F0100321
S3150800F430002B1BD07B681B686FF010021A617B6873
S3150800F44008221A777B681B68DB6903F44073002B74
S3150800F45003D0786800F060F805E0786800F052F8A4
S3150800F460786800F063F87B6800221A77BB6803F0B7
S3150800F4700103002B0CD0FB6803F00103002B07D017
S3150800F4807B681B686FF001021A617868FDF786F9D8
S3150800F490BB6803F08003002B0CD0FB6803F08003E5
S3150800F4A0002B07D07B681B686FF080021A617868AA
S3150800F4B000F000F9BB6803F04003002B0CD0FB6892
S3150800F4C003F04003002B07D07B681B686FF04002EF
S3150800F4D01A61786800F034F8BB6803F02003002B43
S3150800F4E00CD0FB6803F02003002B07D07B681B6851
S3150800F4F06FF020021A61786800F0D2F800BF103762
S3150800F500BD4680BD80B483B000AF786000BF0C37BD
S3150800F510BD465DF8047B704780B483B000AF786061
S3150800F52000BF0C37BD465DF8047B704780B483B0D6
S3150800F53000AF786000BF0C37BD465DF8047B7047A6
S3150800F54080B483B000AF786000BF0C37BD465DF865
S3150800F550047B704780B485B000AF786039607B68FB
S3150800F5601B68FB607B68434A934213D07B68B3F100
S3150800F570804F0FD07B68404A93420BD07B683F4A46
S3150800F580934207D07B683E4A934203D07B683D4A44
S3150800F590934208D1FB6823F07003FB603B685B6805
S3150800F5A0FA681343FB607B68324A93422BD07B6828
S3150800F5B0B3F1804F27D07B682F4A934223D07B68CC
S3150800F5C02E4A93421FD07B682D4A93421BD07B68F4
S3150800F5D02C4A934217D07B682B4A934213D07B68F8
S3150800F5E02A4A93420FD07B68294A93420BD07B68FC
S3150800F5F0284A934207D07B68274A934203D07B6800
S3150800F600264A934208D1FB6823F44073FB603B68A3
S3150800F610DB68FA681343FB60FB6823F080023B68EB
S3150800F6205B691343FB603B689A687B68DA623B68F0
S3150800F6301A687B689A627B680E4A934203D07B6895
S3150800F640104A934203D13B681A697B681A637B6840
S3150800F6501B6843F004027B681A607B6801225A61C2
S3150800F6607B68FA681A6000BF1437BD465DF8047BEC
S3150800F670704700BF00000140000400400008004039
S3150800F680000C0040000401400040014000440140D5
S3150800F6900048014000180040001C004000200040BF
S3150800F6A080B483B000AF786000BF0C37BD465DF804
S3150800F6B0047B704780B483B000AF786000BF0C3716
S3150800F6C0BD465DF8047B704780B584B004AF924BA5
S3150800F6D0C0221A70904BA8225A708F4B01229A703A
S3150800F6E08D4B0C22DA708D4BFF221A708B4BFF2242
S3150800F6F05A708A4BFF229A70884B0022DA70884B20
S3150800F700C0221A70864BA8225A70854B01229A701D
S3150800F710834B0122DA700021002004F0B5FD7E4BF0
S3150800F7201B781A067C4B5B781B041A437A4B9B782A
S3150800F7301B021343784AD27813431A06764B1B7872
S3150800F7401906754B5B781B041943734B9B781B0290
S3150800F7500B437149C9780B431B0203F47F031A4311
S3150800F7606D4B1B7819066C4B5B781B0419436A4B67
S3150800F7709B781B020B436849C9780B431B0A03F4A1
S3150800F7807F431A43644B1B781906634B5B781B044B
S3150800F7901943614B9B781B020B435F49C9780B439E
S3150800F7A01B0E13435F4A13605C4B1B781A065B4BB0
S3150800F7B05B781B041A43594B9B781B021343574A21
S3150800F7C0D27813431A06554B1B781906534B5B78A8
S3150800F7D01B041943514B9B781B020B434F49C978AD
S3150800F7E00B431B0203F47F031A434C4B1B78190681
S3150800F7F04A4B5B781B041943484B9B781B020B4307
S3150800F8004649C9780B431B0A03F47F431A43434B03
S3150800F8101B781906414B5B781B0419433F4B9B78B1
S3150800F8201B020B433D49C9780B431B0E13433E4A43
S3150800F83013603B4B1B781A06394B5B781B041A433B
S3150800F840374B9B781B021343354AD27813431A0663
S3150800F850334B1B781906324B5B781B041943304B24
S3150800F8609B781B020B432E49C9780B431B0203F4F2
S3150800F8707F031A432A4B1B781906294B5B781B040E
S3150800F8801943274B9B781B020B432549C9780B4321
S3150800F8901B0A03F47F431A43214B1B781906204B96
S3150800F8A05B781B0419431E4B9B781B020B431C49B0
S3150800F8B0C9780B431B0E13431C4A13601C4B029357
S3150800F8C01C4B019300230093184B174A15491A48F5
S3150800F8D005F0A4FA184805F053FC174805F060FC33
S3150800F8E01649154805F05EFD2422002114480EF03D
S3150800F8F04AFD134B134A1A60114B4FF480625A6142
S3150800F9000F4B10229A610E4A0B490F4800F091FDE1
S3150800F91000BFBD4680BD00BF3C010020400100205D
S3150800F9204401002030010020340100203801002065
S3150800F930C541010835FE0008FC0000204DF9000805
S3150800F94048010020A0F10108D900010880B483B05D
S3150800F95000AF786000BF0C37BD465DF8047B704782
S3150800F96080B582B000AF7860044B1B68184600F07B
S3150800F970F7FF00BF0837BD4680BD00BFF83F00202F
S3150800F98080B582B000AF7860044B1B68184600F05B
S3150800F990E7FF00BF0837BD4680BD00BFFC3F00201B
S3150800F9A080B582B000AF78607868FEF77CF90346C8
S3150800F9B003F08003802B04D1044B1B68184600F023
S3150800F9C0CFFF00BF0837BD4680BD00BFF83F002007
S3150800F9D080B5AAB000AF7860002387F89F3000236F
S3150800F9E0C7F8A0300023C7F8983007F1100364223F
S3150800F9F0002118460EF0C7FC894B8A4A1A60002374
S3150800FA003B7280237B72E123BB720023FB720023C7
S3150800FA103B7373237B73824A07F108035360804B59
S3150800FA204FF400029A607E4B7F4ADA607C4B7F4A2D
S3150800FA301A617B4B4FF4C0625A617948FDF7EAFABE
S3150800FA40034687F89F303822002179480EF09BFC40
S3150800FA50774B21221A60764B4FF440025A61744B59
S3150800FA6000221A61734805F093F87B68062283F82A
S3150800FA702C206B4B5B681A787B6883F82620684BCA
S3150800FA805B685A787B6883F82720654B5B689A78A9
S3150800FA907B6883F82820624B5B68DA787B6883F892
S3150800FAA029205F4B5B681A797B6883F82A205C4BB0
S3150800FAB05B685A797B6883F82B207B6840F2DC52B6
S3150800FAC09A847B6893F82D3043F00A03DAB27B6890
S3150800FAD083F82D2000220021012000F065FE034650
S3150800FAE0554A136000220021012000F05DFE0346FE
S3150800FAF0524A136007F174032422002118460EF0B7
S3150800FB0042FC4F4B7B674FF4AF73C7F888303023FE
S3150800FB10C7F88C3007F174031A467968494800F02B
S3150800FB2088FC49494948FDF726F84848FDF755F83D
S3150800FB300346002B06D0786805F004FC786805F0C3
S3150800FB409BFB6AE097F89F30002B64D13F48FDF78E
S3150800FB5091F8C7F89800D7F89830012B06DC786832
S3150800FB6005F0F0FB786805F087FB56E0D7F8983083
S3150800FB70023B032B2AD801A252F823F08DFB00087A
S3150800FB809FFB0008AFFB0008BFFB00084FF40063AB
S3150800FB90C7F8A4304FF48043C7F8A0301FE000230D
S3150800FBA0C7F8A4304FF48043C7F8A03017E04FF4E5
S3150800FBB00063C7F8A4300023C7F8A0300FE000237D
S3150800FBC0C7F8A4300023C7F8A03008E04FF4006354
S3150800FBD0C7F8A4304FF48043C7F8A03000BF07F138
S3150800FBE0100319460E48FDF7FDFED7F8A430BB6290
S3150800FBF0D7F8A0307B6207F1100319460848FDF7CD
S3150800FC00E8FF0748FDF7A2FA786805F0C9FA7868A8
S3150800FC1005F064FB01E0FCF7D3FDA837BD4680BDBF
S3150800FC200040002000800240583F0020B83E0020D7
S3150800FC30B0400020E01C0208F83F0020FC3F0020EE
S3150800FC40A8F10108E1FD00080C000020E8400020AA
S3150800FC5080B592B000AF7860396000237B640023DA
S3150800FC603B64002387F83F3007F10C03302200215C
S3150800FC7018460EF088FB07F10C03302200211846BF
S3150800FC800EF081FB3B683B6445E07B6C032B02D995
S3150800FC906FF00B037FE03B6C59687A6C13465B0088
S3150800FCA013449B0048333B443C3B19603B6C5B89DF
S3150800FCB019467A6C13465B0013449B0048333B4451
S3150800FCC0383B19607B6C002B11D07B6C5A1E07F1F0
S3150800FCD00C00796C0B465B000B449B00C11813465D
S3150800FCE05B0013449B0048333B44343B19603B6C30
S3150800FCF01B68002B09D17A6C13465B0013449B00E2
S3150800FD0048333B44343B00221A607B6C01337B64E6
S3150800FD103B6C1B683B643B6C002BB6D13B681B896C
S3150800FD201A461F4B5A601E4A07F10C0393601C4A79
S3150800FD303B685363386805F089FF19491948FDF788
S3150800FD40F4FA0346002B03D1002387F83F301BE063
S3150800FD501448FDF79BFF034603F00203002B0DD062
S3150800FD60114B1B684FF4FA61184600F0A7FD0D48C1
S3150800FD70FDF77AFCFE2387F83F3005E0386805F082
S3150800FD80BFFEF42387F83F3097F93F3013F1020F8F
S3150800FD90D3D097F93F3018464837BD4680BD00BFD7
S3150800FDA0B040002000400020FC3F002080B584B011
S3150800FDB000AF78600023FB60074B1B78002B05D14A
S3150800FDC007F10C0319460548FDF70BFBFB681846B7
S3150800FDD01037BD4680BD00BFB43E0020004000205D
S3150800FDE080B584B000AF78600023FB607B68BB6099
S3150800FDF00F4B1B684FF0FF31184600F05FFD0346B6
S3150800FE00002BF5D1B868FFF7D1FFF860FB68002B27
S3150800FE100AD0BB681B69B968F86898470346002B7F
S3150800FE2002D0F86805F06CFEFB68002BEAD1DFE724
S3150800FE30F83F002080B582B000AF78607B68002B61
S3150800FE4006D10E4B4FF4FE720D490E480EF036FAE7
S3150800FE507B68732283F82E207B68742283F82F2010
S3150800FE607B68094A5A617B68084A9A617868FFF78D
S3150800FE70AFFD002318460837BD4680BDB0F101081E
S3150800FE80CCF10108DCF10108E5C1010851FC0008C4
S3150800FE9080B584B000AF78607B68FB60F968094874
S3150800FEA004F066FF084B1B78012B07D1064B00228E
S3150800FEB01A70064B1B68184600F052FD00BF103733
S3150800FEC0BD4680BDE01C0208B43E0020F83F002075
S3150800FED080B500AFFCF78CFF0346184680BD0000CE
S3150800FEE080B58EB000AF786007F1240300221A604F
S3150800FEF05A609A60DA601A617B681B684A4A9342BC
S3150800FF0040F08D8000233B62484B1B6B474A43F009
S3150800FF1000731363454B1B6B03F000733B623B6A2C
S3150800FF200023FB61414B1B6B404A43F0806313631C
S3150800FF303E4B1B6B03F08063FB61FB690023BB61CF
S3150800FF403A4B1B6B394A43F000631363374B1B6B01
S3150800FF5003F00063BB61BB6900237B61334B1B6BFA
S3150800FF60324A43F004031363304B1B6B03F004035C
S3150800FF707B617B6900233B612C4B1B6B2B4A43F04F
S3150800FF8001031363294B1B6B03F001033B613B69B8
S3150800FF900023FB60254B1B6B244A43F002031363C3
S3150800FFA0224B1B6B03F00203FB60FB6832237B6268
S3150800FFB00223BB620023FB6203233B630B237B63A1
S3150800FFC007F1240319461A48FEF79CFA86237B6232
S3150800FFD00223BB620023FB6203233B630B237B6381
S3150800FFE007F1240319461348FEF78CFA4FF46053B9
S3150800FFF07B620223BB620023FB6203233B630B2362
S315080100007B6307F1240319460B48FEF77BFA0022A6
S3150801001005213D20FCF7D4FF3D20FCF7EDFF00BF8D
S315080100203837BD4680BD00BF008002400038024017
S3150801003000080240000002400004024080B500AFFB
S315080100400248FDF7E1FD0023184680BD0040002067
S3150801005080B400AF00231846BD465DF8047B70479F
S3150801006080B584B000AFF860B9607A607B68BA6819
S31508010070F9680748FDF722FC0346002B02D04FF02A
S31508010080FF3300E0002318461037BD4680BD00BF88
S315080100900040002080B584B000AFF860B9607A608E
S315080100A07B68BA68F9680748FDF753FC0346002BD5
S315080100B002D04FF0FF3300E0002318461037BD4643
S315080100C080BD00BF0040002080B500AFFCF790FE60
S315080100D00346184680BD000080B5A0B000AF786021
S315080100E007F108036422002118460EF04CF9002393
S315080100F03B670023FB670023BB6700237B677B689D
S31508010100FB663A48FCF7B6FD3867FB6E93F82D3067
S315080101109B0803F00103DBB2002B0CD03B6F012BCC
S3150801012009DC3348FDF782F8F86E05F0A5F8F86E94
S3150801013005F008F955E0FB6E93F82D3003F004033A
S31508010140002B4ED13B6F012B4BDD3B6F023B032B43
S315080101502AD801A252F823F0690101087B01010896
S315080101608B0101089B0101084FF400637B674FF47B
S315080101708043BB670123FB6717E000237B674FF4C6
S315080101808043BB670123FB670FE04FF400637B677E
S315080101900023BB670123FB6707E000237B67002376
S315080101A0BB670123FB6700E000BFFB6F002B18D07C
S315080101B007F1080319460E48FDF714FC7B6F3B62ED
S315080101C0BB6FFB6107F1080319460948FDF701FDF5
S315080101D00748FCF7BBFFF86E04F0E2FFF86E05F07E
S315080101E07DF8642000F0B7F98BE700BFE8400020EE
S315080101F00040002080B586B002AF7860124804F04E
S3150801020043FDF860FB68002B14D0FB6803F120025C
S315080102107B681A60FB680D4A1A617B681B684FF494
S31508010220C06201920093FB6841220021002005F07B
S31508010230ADFA05E0064B01221A707B6800221A60A6
S3150801024000BF1037BD4680BDE01C020891FE0008BC
S31508010250B43E002080B489B000AFF860B9607A6016
S315080102607B80FB68BB61BB687B610023FB617B68A4
S31508010270203BFB61FB6900221A60FB6900221A8197
S31508010280FB697A885A81BB691B68002B03D1BB6954
S31508010290FA691A6003E07B691B68FA691A607B6967
S315080102A0FA691A60BB691B68FB6109E0FB691A896F
S315080102B07B8813449AB2FB691A81FB691B68FB6147
S315080102C0FB69002BF2D100BF00BF2437BD465DF89C
S315080102D0047B704780B582B000AF7860786805F016
S315080102E00FFC00BF0837BD4680BD000080B483B04F
S315080102F000AF03463960FB7197F90730002B0ADB1B
S315080103003B68DAB20C4997F907301201D2B20B44AD
S3150801031083F800230AE03B68DAB20849FB7903F05F
S315080103200F03043B1201D2B20B441A7600BF0C37F5
S31508010330BD465DF8047B704700E100E000ED00E092
S3150801034080B500AF054B1B6802F0C6FC0346012BBE
S3150801035001D003F0C1FB00BF80BD00BF10E000E083
S3150801036080B500AF00216FF00400FFF7BFFF00BFA3
S3150801037080BD000080B483B000AFEFF305833B6016
S315080103803B68002B03D06FF005037B600CE00A4B3A
S315080103901B68002B05D1084B01221A6000237B60DC
S315080103A002E04FF0FF337B607B6818460C37BD4689
S315080103B05DF8047B704700BF0841002080B582B014
S315080103C000AFEFF305833B603B68002B03D06FF06A
S315080103D005037B6010E00B4B1B68012B09D1FFF766
S315080103E0BFFF084B02221A6001F0F0FF00237B6071
S315080103F002E04FF0FF337B607B6818460837BD463D
S3150801040080BD00BF0841002080B582B000AFEFF380
S3150801041005833B603B68002B03D002F003F9786043
S3150801042002E002F0EFF878607B6818460837BD46A7
S3150801043080BD80B58EB004AFF860B9607A600023DC
S315080104403B61EFF305837B617B69002B7ED1FB68FA
S31508010450002B7BD080233B621823FB6100237B6240
S315080104604FF0FF33BB617B68002B45D07B681B6867
S31508010470002B02D07B681B687B627B689B69002B1B
S3150801048002D07B689B69FB61FB69002B08D0FB697D
S31508010490382B05D87B685B6803F00103002B01D074
S315080104A0002354E07B685B69002B03D07B685B699A
S315080104B09B083B627B689B68002B0ED07B68DB68D8
S315080104C0A72B0AD97B681B69002B06D07B685B6959
S315080104D0002B02D00123BB6110E07B689B68002BCF
S315080104E00CD17B68DB68002B08D17B681B69002B64
S315080104F004D10023BB6101E00023BB61BB69012B69
S3150801050010D17B681B697A68926802920193FB692C
S315080105100093BB683A6A796AF86801F063FD034695
S315080105203B6113E0BB69002B10D13B6A9AB207F114
S3150801053010030193FB690093BB68796AF86801F0B7
S31508010540B1FD0346012B01D000233B613B691846E7
S315080105502837BD4680BD80B584B000AF7860EFF31B
S315080105600583BB60BB68002B03D06FF00503FB60F6
S3150801057007E00023FB607B68002B02D0786801F056
S31508010580EFFEFB6818461037BD4680BD80B588B0BA
S3150801059000AF78600023FB61EFF30583BB60BB689E
S315080105A0002B74D17B68002B03D07B685B68BB6129
S315080105B001E00023BB61BB6903F00103002B02D0F4
S315080105C001237B6101E000237B61BB6903F008031A
S315080105D0002B5CD14FF0FF333B617B68002B15D0B4
S315080105E07B689B68002B06D07B68DB684F2B02D99A
S315080105F001233B610CE07B689B68002B08D17B6873
S31508010600DB68002B04D100233B6101E000233B6139
S315080106103B69012B12D17B69002B07D07B689B684C
S315080106201946042000F071FDF86116E07B689B68A5
S315080106301946012000F069FDF8610EE03B69002BBF
S315080106400BD17B69002B04D0042000F046FDF8612C
S3150801065003E0012000F041FDF861FB69002B0CD095
S315080106607B68002B03D07B681B68FB6001E00023D5
S31508010670FB60F968F86901F02DFCFB69002B06D0CF
S315080106807B69002B03D0FB6943F00103FB61FB691E
S3150801069018462037BD4680BD80B586B000AF786064
S315080106A039607B6823F001033B617B6803F0010332
S315080106B0FB6000237B61EFF30583BB60BB68002BFE
S315080106C003D06FF005037B612CE03B69002B03D156
S315080106D06FF003037B6125E0FB68002B11D03968B5
S315080106E0386900F062FD0346012B1BD03B68002BDD
S315080106F003D06FF001037B6114E06FF002037B61A5
S3150801070010E03968386901F007F90346012B09D069
S315080107103B68002B03D06FF001037B6102E06FF0A9
S3150801072002037B617B6918461837BD4680BD80B5D3
S3150801073086B000AF78607B6823F001033B617B6874
S3150801074003F00103FB6000237B61EFF30583BB60C4
S31508010750BB68002B03D06FF005037B611FE03B6983
S31508010760002B03D16FF003037B6118E0FB68002BB4
S3150801077009D0386900F0E4FC0346012B0FD06FF06D
S3150801078002037B610BE0002300220021386900F097
S31508010790B1FD0346012B02D06FF002037B617B6931
S315080107A018461837BD4680BD80B58AB002AFF860D5
S315080107B0B9607A600023FB61EFF305833B613B690E
S315080107C0002B75D1FB68002B72D0BA68FB689A4278
S315080107D06ED84FF0FF33BB617B68002B15D07B6861
S315080107E09B68002B06D07B68DB684F2B02D9012357
S315080107F0BB610CE07B689B68002B08D17B68DB68D2
S31508010800002B04D10023BB6101E00023BB61BB6956
S31508010810B3F1FF3F4CD0FB68012B28D1BB69012BF3
S315080108200AD17B689B6803220092002200210120DD
S3150801083000F05EFBF86105E003220021012000F0CB
S31508010840D4FBF861FB69002B22D0BB68002B1FD0B3
S31508010850002300220021F86900F04CFD0346012B14
S3150801086016D0F86901F0EAF90023FB6110E0BB69CB
S31508010870012B08D17B689B681A46B968F86800F0AD
S31508010880CBFCF86104E0B968F86800F0FEFCF86191
S31508010890FB69002B0CD07B68002B03D07B681B6897
S315080108A07B6101E000237B617969F86901F012FB3C
S315080108B0FB6918462037BD4680BD000080B586B065
S315080108C000AF786039607B683B6100237B613B69D7
S315080108D0002B03D16FF003037B6139E0EFF3058346
S315080108E0FB60FB68002B22D03B68002B03D06FF01E
S315080108F003037B612CE00023BB6007F108031A465A
S315080109000021386901F018F90346012B03D06FF06D
S3150801091002037B611CE0BB68002B19D00F4B4FF01B
S3150801092080521A60BFF34F8FBFF36F8F10E039689B
S31508010930386900F0F1FF0346012B09D03B68002B0B
S3150801094003D06FF001037B6102E06FF002037B6164
S315080109507B6918461837BD4680BD00BF04ED00E027
S3150801096080B586B000AF78607B683B6100237B6108
S315080109703B69002B03D16FF003037B612CE0EFF396
S315080109800583FB60FB68002B1AD00023BB6007F1C7
S3150801099008031946386900F04DFE0346012B03D0BA
S315080109A06FF002037B6117E0BB68002B14D00D4B77
S315080109B04FF080521A60BFF34F8FBFF36F8F0BE072
S315080109C0002300220021386900F094FC0346012B1C
S315080109D002D06FF002037B617B6918461837BD4662
S315080109E080BD00BF04ED00E080B58AB002AFF860B3
S315080109F0B9607A600023FB61EFF305833B613B69CC
S31508010A00002B5FD1FB68002B5CD0BB68002B59D04B
S31508010A104FF0FF33BB617B68002B29D07B689B684D
S31508010A20002B12D07B68DB684F2B0ED97B681B69BC
S31508010A30002B0AD07B685A69FB68B96801FB03F386
S31508010A409A4202D30123BB6114E07B689B68002BA1
S31508010A5010D17B68DB68002B0CD17B681B69002BE6
S31508010A6008D17B685B69002B04D10023BB6101E0D7
S31508010A700023BB61BB69012B0BD17B681A697B68B3
S31508010A809B6800210091B968F86800F031FAF861AD
S31508010A9008E0BB69002B05D10022B968F86800F0A7
S31508010AA0A4FAF861FB69002B0CD07B68002B03D0F4
S31508010AB07B681B687B6101E000237B617969F869C2
S31508010AC001F008FAFB6918462037BD4680BD0000CB
S31508010AD080B588B000AFF860B9603B601346FB711A
S31508010AE0FB68BB610023FB61EFF305837B617B69CF
S31508010AF0002B28D0BB69002B05D0BB68002B02D080
S31508010B003B68002B03D06FF00303FB6138E0002339
S31508010B103B6107F110020023B968B86900F0ECFCE3
S31508010B200346012B03D06FF00203FB6128E03B6902
S31508010B30002B25D0154B4FF080521A60BFF34F8F0B
S31508010B40BFF36F8F1CE0BB69002B02D0BB68002B7B
S31508010B5003D16FF00303FB6112E000233A68B96819
S31508010B60B86900F0C7FB0346012B09D03B68002B87
S31508010B7003D06FF00103FB6102E06FF00203FB6132
S31508010B80FB6918462037BD4680BD00BF04ED00E06D
S31508010B9080B588B000AFF860B9607A603B60FB68E1
S31508010BA0BB610023FB61EFF305837B617B69002B46
S31508010BB028D0BB69002B05D0BB68002B02D03B6847
S31508010BC0002B03D06FF00303FB6137E000233B6181
S31508010BD007F110031A46B968B86900F0ADFF034674
S31508010BE0012B03D06FF00203FB6127E03B69002B61
S31508010BF024D0154B4FF080521A60BFF34F8FBFF3C5
S31508010C006F8F1BE0BB69002B02D0BB68002B03D199
S31508010C106FF00303FB6111E03A68B968B86900F03F
S31508010C2099FD0346012B09D03B68002B03D06FF0D1
S31508010C300103FB6102E06FF00203FB61FB691846E1
S31508010C402037BD4680BD00BF04ED00E080B485B005
S31508010C5000AFF860B9607A60FB68074A1A60BB683A
S31508010C60064A1A607B6880221A6000BF1437BD469F
S31508010C705DF8047B704700BF0C410020B441002099
S31508010C8080B485B000AFF860B9607A60FB68074A3E
S31508010C901A60BB68064A1A607B684FF480721A604C
S31508010CA000BF1437BD465DF8047B7047B443002086
S31508010CB05C44002080B483B000AF78607B6803F1A0
S31508010CC008027B685A607B684FF0FF329A607B683E
S31508010CD003F108027B68DA607B6803F108027B6826
S31508010CE01A617B6800221A6000BF0C37BD465DF8A1
S31508010CF0047B704780B483B000AF78607B680022BC
S31508010D001A6100BF0C37BD465DF8047B704780B495
S31508010D1085B000AF786039607B685B68FB603B68CB
S31508010D20FA685A60FB689A683B689A60FB689B6830
S31508010D303A685A60FB683A689A603B687A681A6149
S31508010D407B681B685A1C7B681A6000BF1437BD464E
S31508010D505DF8047B704780B485B000AF7860396070
S31508010D603B681B68BB60BB68B3F1FF3F03D17B6877
S31508010D701B69FB600CE07B680833FB6002E0FB68DB
S31508010D805B68FB60FB685B681B68BA689A42F6D2C7
S31508010D90FB685A683B685A603B685B683A689A60C0
S31508010DA03B68FA689A60FB683A685A603B687A68F1
S31508010DB01A617B681B685A1C7B681A6000BF143766
S31508010DC0BD465DF8047B704780B485B000AF786096
S31508010DD07B681B69FB607B685B687A6892689A60C6
S31508010DE07B689B687A6852685A60FB685B687A68B0
S31508010DF09A4203D17B689A68FB685A607B6800222D
S31508010E001A61FB681B685A1EFB681A60FB681B6837
S31508010E1018461437BD465DF8047B704780B584B023
S31508010E2000AF786039607B68FB60FB68002B0BD1EB
S31508010E304FF0500383F31188BFF36F8FBFF34F8FC2
S31508010E40BB6000BF00BFFDE702F0B6FDFB681A688C
S31508010E50FB68DB6BF968096C01FB03F31A44FB6851
S31508010E609A60FB6800229A63FB681A68FB685A60F5
S31508010E70FB681A68FB68DB6B013BF968096C01FBC7
S31508010E8003F31A44FB68DA60FB68FF2283F84420FF
S31508010E90FB68FF2283F845203B68002B14D1FB68C9
S31508010EA01B69002B1AD0FB681033184601F03EFD6A
S31508010EB00346002B12D00D4B4FF080521A60BFF338
S31508010EC04F8FBFF36F8F09E0FB6810331846FFF7A2
S31508010ED0F1FEFB6824331846FFF7ECFE02F09EFD8F
S31508010EE0012318461037BD4680BD00BF04ED00E05A
S31508010EF080B58EB002AFF860B9607A603B60FB6876
S31508010F00002B0BD14FF0500383F31188BFF36F8F7A
S31508010F10BFF34F8FBB6200BF00BFFDE73B68002BE5
S31508010F200BD14FF0500383F31188BFF36F8FBFF3D3
S31508010F304F8F7B6200BF00BFFDE77B68002B02D0A5
S31508010F40BB68002B01D0012300E00023002B0BD145
S31508010F504FF0500383F31188BFF36F8FBFF34F8FA1
S31508010F603B6200BF00BFFDE77B68002B02D1BB686F
S31508010F70002B01D1012300E00023002B0BD14FF0F8
S31508010F80500383F31188BFF36F8FBFF34F8FFB6154
S31508010F9000BF00BFFDE750237B617B69502B0BD057
S31508010FA04FF0500383F31188BFF36F8FBFF34F8F51
S31508010FB0BB6100BF00BFFDE77B693B68FB62FB6A5B
S31508010FC0002B0DD0FB6A012283F8462097F83820BA
S31508010FD0FB6A009313467A68B968F86800F040F826
S31508010FE0FB6A18463037BD4680BD80B58AB002AF68
S31508010FF0F860B9601346FB71FB68002B0BD14FF003
S31508011000500383F31188BFF36F8FBFF34F8F3B6193
S3150801101000BF00BFFDE7FB68BA6802FB03F3FB618B
S31508011020FB695033184602F0E9FDB861BB69002B2C
S3150801103011D0BB697B617B6950337B61BB69002237
S3150801104083F84620FA79BB69009313467A69B96829
S31508011050F86800F005F8BB6918462037BD4680BD1B
S3150801106080B584B000AFF860B9607A60FB70BB6880
S31508011070002B03D1BB69BA691A6002E0BB697A68B9
S315080110801A60BB69FA68DA63BB69BA681A6401212E
S31508011090B869FFF7C3FEBB69FA7883F84C2000BF2D
S315080110A01037BD4680BD80B582B000AF78607B68D9
S315080110B0002B0ED07B6800229A607B6800221A609A
S315080110C07B680022DA60002300220021786800F09C
S315080110D011F900BF0837BD4680BD80B586B000AF9F
S315080110E00346FB7101237B6100233B61FB791A46A9
S315080110F039697869FFF779FFF860F868FFF7D3FF70
S31508011100FB6818461837BD4680BD80B588B002AF62
S3150801111003463960FB7101237B6100233B61FB793F
S3150801112000933B68002239697869FFF7E1FEF860A8
S31508011130F868FFF7B8FFFB6818461837BD4680BD43
S3150801114090B587B000AF78607B683B613B69002B3F
S315080111500BD14FF0500383F31188BFF36F8FBFF3A1
S315080111604F8FFB6000BF00BFFDE73B699C6801F03C
S31508011170A3FD03469C4211D13B69DB685A1E3B69B4
S31508011180DA603B69DB68002B05D1002300220021C8
S31508011190386900F0AFF801237B6101E000237B6128
S315080111A07B6918461C37BD4690BD90B587B000AF20
S315080111B0786039607B683B613B69002B0BD14FF046
S315080111C0500383F31188BFF36F8FBFF34F8FFB6013
S315080111D000BF00BFFDE73B699C6801F06DFD034652
S315080111E09C4207D13B69DB685A1C3B69DA600123DB
S315080111F07B610CE03968386900F08EFB78617B69A0
S31508011200002B04D03B69DB685A1C3B69DA607B69B1
S3150801121018461C37BD4690BD80B58AB002AFF86046
S31508011220B9607A60FB68002B0BD14FF0500383F34A
S315080112301188BFF36F8FBFF34F8FBB6100BF00BF2C
S31508011240FDE7BA68FB689A420BD94FF0500383F35E
S315080112501188BFF36F8FBFF34F8F7B6100BF00BF4C
S31508011260FDE7022300937B6800220021F868FFF757
S315080112703FFEF861FB69002B02D0FB69BA689A63E5
S31508011280FB6918462037BD4680BD80B586B000AFDC
S31508011290786039607B68002B0BD14FF0500383F3DC
S315080112A01188BFF36F8FBFF34F8F3B6100BF00BF3C
S315080112B0FDE73A687B689A420BD94FF0500383F3EE
S315080112C01188BFF36F8FBFF34F8FFB6000BF00BF5D
S315080112D0FDE7022200217868FFF787FE78617B69BE
S315080112E0002B02D07B693A689A637B6918461837DE
S315080112F0BD4680BD80B58EB000AFF860B9607A6032
S315080113003B6000237B63FB683B633B6B002B0BD184
S315080113104FF0500383F31188BFF36F8FBFF34F8FDD
S31508011320BB6200BF00BFFDE7BB68002B03D13B6B67
S315080113301B6C002B01D1012300E00023002B0BD1EC
S315080113404FF0500383F31188BFF36F8FBFF34F8FAD
S315080113507B6200BF00BFFDE73B68022B03D13B6BF5
S31508011360DB6B012B01D1012300E00023002B0BD1FC
S315080113704FF0500383F31188BFF36F8FBFF34F8F7D
S315080113803B6200BF00BFFDE701F0A6FC0346002B48
S3150801139002D17B68002B01D1012300E00023002B39
S315080113A00BD14FF0500383F31188BFF36F8FBFF34F
S315080113B04F8FFB6100BF00BFFDE702F0FDFA3B6BF3
S315080113C09A6B3B6BDB6B9A4202D33B68022B29D1A2
S315080113D03A68B968386B00F06DFCF8623B6B5B6A7A
S315080113E0002B10D03B6B2433184601F09FFA0346B5
S315080113F0002B13D03F4B4FF080521A60BFF34F8F2B
S31508011400BFF36F8F0AE0FB6A002B07D0394B4FF009
S3150801141080521A60BFF34F8FBFF36F8F02F0FEFA47
S31508011420012363E07B68002B03D102F0F7FA00235E
S315080114305CE07B6B002B06D107F11403184601F01B
S31508011440D9FA01237B6302F0E9FA01F02FF802F0D9
S31508011450B3FA3B6B93F844305BB2B3F1FF3F03D168
S315080114603B6B002283F844203B6B93F845305BB213
S31508011470B3F1FF3F03D13B6B002283F8452002F00D
S31508011480CDFA3A1D07F114031146184601F0C8FAB8
S315080114900346002B24D1386B00F004FD0346002BCC
S315080114A018D03B6B10337A681146184601F0ECF9EF
S315080114B0386B00F08FFC01F007F80346002B7FF428
S315080114C07CAF0C4B4FF080521A60BFF34F8FBFF3BE
S315080114D06F8F72E7386B00F07DFC00F0F5FF6CE763
S315080114E0386B00F077FC00F0EFFF00231846383719
S315080114F0BD4680BD04ED00E080B590B000AFF86050
S31508011500B9607A603B60FB68BB63BB6B002B0BD190
